:020000040800F2
:1000000000000320810500082120000823200008AB
:1000100025200008272000082920000800000000F3
:10002000000000000000000000000000A1760008B1
:100030002B2000080000000031770008BB6F00088B
:10004000D1050008D1050008D1050008D105000838
:10005000D1050008D1050008D1050008D105000828
:10006000D1050008D1050008D1050008D105000818
:10007000D1050008D1050008D1050008D105000808
:10008000D1050008D1050008D1050008D1050008F8
:10009000D1050008D1050008D1050008D1050008E8
:1000A000D1050008D1050008D1050008D1050008D8
:1000B000D1050008D1050008D1050008D1050008C8
:1000C000D1050008D1050008D1050008D1050008B8
:1000D000D1050008D1050008D1050008D1050008A8
:1000E00051200008D1050008D1050008D1050008FD
:1000F000D1050008D1050008D1050008D105000888
:10010000D1050008D1050008D1050008D105000877
:10011000D1050008D10500082D200008D1050008F0
:10012000D1050008D1050008D1050008D105000857
:10013000D1050008D1050008D1050008D105000847
:10014000D1050008D1050008D1050008D105000837
:10015000D1050008D1050008D1050008D105000827
:10016000D1050008D1050008D1050008D105000817
:10017000D1050008D1050008D105000800000000E5
:10018000D1050008D1050008D1050008D1050008F7
:10019000D1050008D1050008D1050008D1050008E7
:0C01A00039200008D105000845200008A7
:1001B00010B5054C237833B9044B13B10448AFF3A1
:1001C00000800123237010BD6801002000000000A2
:1001D000E421020808B5034B1BB103490348AFF300
:1001E000008008BD000000006C010020E42102082E
:1001F00001F0FF01102A2BDB10F0070F08D010F8D8
:10020000013B013A8B422DD010F0070F42B3F6D1DB
:10021000F0B441EA012141EA014122F007047FF0F4
:1002200000070023F0E80256083C85EA010586EA4B
:10023000010685FA47F5A3FA87F586FA47F6A5FA87
:1002400087F68EB9EED1F0BC01F0FF0102F0070293
:1002500032B110F8013B013A83EA010313B1F8D13E
:100260000020704701387047002D06BF354603381F
:10027000073815F0010F07D1013015F4807F02BF58
:10028000013015F4C03F0130F0BC0138704700BFA9
:1002900053B94AB9002908BF00281CBF4FF0FF31ED
:1002A0004FF0FF3000F06AB9ADF1080C6DE904CEF3
:1002B00000F006F8DDF804E0DDE9022304B0704741
:1002C0002DE9F047089D0C46002B4ED194468C45F5
:1002D0008646B2FA82F262D94AB1C2F12003914055
:1002E00020FA03F30CFA02FC194300FA02FE4FEA6B
:1002F0001C471FFA8CF6B1FBF7F44FEA1E4307FBCD
:10030000141143EA014304FB06F199420AD91CEB9C
:10031000030304F1FF3080F01281994240F20F8113
:10032000023C6344591A1FFA8EF3B1FBF7F007FB46
:10033000101143EA014300FB06F69E420AD91CEB6A
:10034000030300F1FF3180F0FC809E4240F2F9800F
:10035000634402389B1B40EA044000211DB1D34096
:100360000022C5E90032BDE8F0878B4205D90DB106
:10037000C5E9000100210846F5E7B3FA83F1002939
:1003800046D1A34202D39042C0F0F080861A64EBBB
:1003900003030120002DE6D0C5E90063E3E7002A4E
:1003A00040F09080A1EB0C044FEA1C481FFA8CF738
:1003B0000121B4FBF8F64FEA1E4308FB164443EA5A
:1003C000044307FB06F0984208D91CEB030306F12F
:1003D000FF3402D2984200F2CD8026461C1A1FFA42
:1003E0008EF3B4FBF8F008FB104443EA044300FB2F
:1003F00007F79F4208D91CEB030300F1FF3402D238
:100400009F4200F2B0802046DB1B40EA0640A5E791
:10041000C1F120068B4022FA06F71F4320FA06FCA2
:1004200004FA01F343EA0C03F44000FA01F8380C33
:100430004FEA1349B4FBF0FE1FFA87FC00FB1E4491
:1004400049EA04440EFB0CF9A14502FA01F20AD96B
:100450003C190EF1FF3A80F08480A14540F2818082
:10046000AEF1020E3C44A4EB09041FFA83F9B4FB7D
:10047000F0F300FB134449EA044403FB0CFCA445DD
:1004800007D93C1903F1FF3067D2A44565D9023B77
:100490003C4443EA0E40A0FB0293A4EB0C049C42B4
:1004A000CE469C4651D34ED055B1B8EB0E0364EB0B
:1004B0000C0404FA06F6CB401E43CC40C5E90064A8
:1004C000002150E7C2F1200320FA03F10CFA02FCEC
:1004D00024FA03F394400C434FEA1C4800FA02FE4E
:1004E0001FFA8CF7B3FBF8F008FB1031230C43EA3A
:1004F000014300FB07F1994208D91CEB030300F10B
:10050000FF362CD299422AD9023863445B1AA4B22E
:10051000B3FBF8F108FB113344EA034401FB07F392
:10052000A34208D91CEB040401F1FF3613D2A34205
:1005300011D902396444E41A41EA004139E704461A
:10054000F0E6084606E7C845AED2B9EB020E63EB0B
:10055000070C0138A8E73146EDE7034699E7304636
:10056000D4E7D6467FE7634402384DE70646234684
:1005700008460FE7023E634430E700BF704700BF04
:10058000DFF834D0002103E00C4B5B5843500431BA
:100590000B480C4B42189A42F6D30B4A02E0002358
:1005A00042F8043B094B9A42F9D304F067F921F071
:1005B00041F800F087FF70470000032080BE0A0862
:1005C000000000206801002068010020A0460120F2
:1005D000FEE7704708B500F05DFDBDE8084000F09B
:1005E000E7BC00F059BD704710B50421044620F067
:1005F00073FB204610BD000038B50C4B0C4C188026
:100600000C4B822019806368984740F6110398428A
:100610000AD1094D23682C60822098472B688220DC
:10062000DB689847002038BD0120FCE78E010020E0
:10063000500000208C010020900100204FF4A07198
:10064000F020FFF7D9BF0000F7B5334D2B68044603
:100650001B6982209847208000284AD02B680DF122
:1006600006025B6901A982209847BDF8063040F672
:10067000746293423FD9ADF80620BDF80630D21A15
:1006800092B20A2A3DD90B23B2FBF3F2234B1B880B
:100690009A4201D9013B9AB2BDF8043040F6B83114
:1006A0008B4230D8C3F571630E339BB20F21B3FB7D
:1006B000F1F31B4909888B4201D901398BB2194EDC
:1006C000194D30682F68834281B28CBF591AC91AFC
:1006D000B8B2BA428CBF101A801A89B280B20144F3
:1006E0000529C8BF33603368C8BF2A6063802B68A0
:1006F000A38003B0F0BDB32B9CBFB423ADF806308C
:10070000BBE70022C8E7C3F56D6308339BB20E2B2D
:10071000CCD80023D3E700BF900100208C0100203B
:100720008E010020880100208401002037B5684632
:100730000D461446FFF788FFBDF8000030B1BDF844
:1007400002302B60BDF804302360012003B030BDBF
:10075000032821D8DFE800F0020B12190F4B1A68AA
:10076000B2FA82F2520904210D4804F01DBB0B4B72
:100770005A68B2FA82F252090821F5E7074B9A68E3
:10078000B2FA82F252091021EEE7044BDA68B2FAAB
:1007900082F252092021E7E7704700BF9401002050
:1007A00000100240032821D8DFE800F0020B1219E4
:1007B0000F4B1A68003A18BF012204210D4804F0BB
:1007C000F3BA0B4B5A68003A18BF01220821F5E72B
:1007D000074B9A68003A18BF01221021EEE7044B3C
:1007E000DA68003A18BF01222021E7E7704700BF0E
:1007F000940100200010024003280DD8DFE800F02B
:100800000206080A0421054804F0D3BA0821FAE7D1
:100810001021F8E72021F6E7704700BF00100240E2
:1008200008B5032811D8DFE800F0020A0C0E0421F5
:10083000074804F0B3FA431E5842584108BD082146
:10084000F6E71021F4E72021F2E70020F3E700BFEC
:100850000010024070B5084D00240126E0B2FFF7F9
:10086000DFFF18B12B68012B18BF2E600134052C57
:1008700005F10405F2D170BD94010020012380F838
:10088000781080F87930704700207047034B41643E
:10089000003918BF01211970704700BF673A012065
:1008A00000207047836B0BB10846184770474FF61E
:1008B000FF707047406803689B691847704770472E
:1008C0007047000010B5044600F0CAFC23680349D5
:1008D000D3F88C302046BDE810401847000000D007
:1008E00008B503680446D3F880309847236820464B
:1008F0009B6F984700F0ECF8236820461B6F9847E1
:10090000292001F077F800F0E3F8236820461B6FF8
:100910009847F8E710B5044609F0E2FD2368204641
:10092000D3F8AC30BDE81040184700F08BBC00F0A5
:100930008FBC00F0B3BC00F061BC00F0C3BC00F0A1
:10094000CBBC00F065BC09F037B810B57C2104467B
:1009500020F0C2F9204610BD10B590F8341090F880
:1009600078400C4B8C421A7809D03AB90A4A0B49A4
:100970001488088810800C8001221A7010BD002A8B
:10098000FCD0054A05491488088810800C80002294
:10099000F3E700BF603A01205C3A01205E3A012093
:1009A00070B50D46194635B9094B0A4A0A4840F256
:1009B000D22120F0BFF9C0E90F52084B003A18BF0E
:1009C00001221A700368BDE87040D3F88C301847D4
:1009D000542202088C220208DA220208663A012018
:1009E00008B5094B1B888B4203D8084B1B889342E0
:1009F00005D9074B074A08489E2120F09BF9074B71
:100A00001980074B1A8008BD5C3A01205E3A01202C
:100A10001F23020882230208DA220208623A012018
:100A2000643A0120034690F87A0018B158680368C8
:100A30001B68184770470000012108B500220846CE
:100A400006F047FB0A4B186028B90A4B0A4A2821CE
:100A50000A4820F06FF900220421012006F0D8FB9B
:100A6000074B186018B9074B034A2C21F0E708BD63
:100A7000A8010020A0240208E92402081825020881
:100A8000A40100206B250208024B4FF0FF311868CB
:100A900006F069BBA8010020014B186806F08FBB67
:100AA000A8010020024B0021186806F05CBB00BFC3
:100AB000A8010020FFF7F0BF0348044900680023A5
:100AC0001A4606F0E0BB00BFA4010020040000208D
:100AD00013B5084C00231A4601A9206806F004FC4F
:100AE00020684FF0FF33002201A906F0FDFB02B0A1
:100AF00010BD00BFA401002003685B6C18470120F3
:100B0000704703689B6A184740F2EF307047000057
:100B1000054B0360054B4FF08062C3F88820BFF39C
:100B20004F8FBFF36F8F70471027020800E100E07E
:100B300010B504464FF45A61FFF7EAFF204620F053
:100B4000CBF8204610BD000082B0002301930D4B6E
:100B50001A6B42F400021A631A6B02F4000201924B
:100B6000019A1A6942F400021A611A6922F4000219
:100B70001A61054B054A1A61054B4FF080629A6075
:100B800002B0704700380240CC2B0020E10D000875
:100B900000E100E008B50A2809D8DFE800F00610F7
:100BA0000E080808081010101000022008BD054BA0
:100BB000054A0648862120F0BDF80020F6E701200E
:100BC000F4E700BFAD250208C82502081326020875
:100BD00038B50C46887FFFF7DDFFA58AE28A164B01
:100BE0002169586342EA05425A64628BD963521BF9
:100BF0001A642568082D0ED19A611A615862207F07
:100C00000E4A42EA0062DA61E2681A620C4A5961ED
:100C1000D9601A6038BD0022D8611A61E1680A0AF9
:100C2000480902F4784200F4FC600243C1F3C401B5
:100C30000A439A63034AECE700B00240090001004E
:100C4000010202000102030008B50B280BD8DFE8FF
:100C500000F00612100A0A0A0A080808080802200A
:100C600008BD0520FCE7054B054A0648652120F034
:100C700061F80020F4E70120F2E700BFAD2502088B
:100C800064260208132602082DE9F04191F81D8020
:100C90000C464046FFF7D8FFA77F05463846FFF7CA
:100CA000D3FF06463846FFF775FFA18A628B444B97
:100CB000521A1A649A61228B521A1A61E28A586394
:100CC00042EA01425A6421696268D963DA602068A5
:100CD000802828D0227F0FD8202867D0402865D0D0
:100CE00004281AD0364B45EA026545F40035B8456C
:100CF000DD6161D0334A44E0B0F5807F04D0B0F5C7
:100D0000007FEFD1304800E0304840EA0262DA610B
:100D1000E2681A625E62596132E045EA026242F4B8
:100D20000032DA61F6E7A068021DDA62227F45EA46
:100D3000026545F40035DD615E625961017841B1BB
:100D4000012921D0224B234A23484FF488711FF0F8
:100D5000F1FFDA69418822F47F42013922F0100262
:100D600042EA0122DA610121154BDA6942F02002E0
:100D7000DA61DA699206FCD410229A600029B9D0AF
:100D8000164A1A60BDE8F081B2F1FF01DA694088C5
:100D900022F47F4200F1FF3022F0100242EA0022EA
:100DA00042F0100218BF0121DA61DDE745EA026274
:100DB000034B42F40032B4E740F20122E1E700BF06
:100DC00000B0024001020100090002000A00020016
:100DD000AE260208C82602081326020801020200F5
:100DE000024B1B68586803685B691847683A012022
:100DF00070B5044625460A4B0C300026606026720A
:100E0000667245F8203B6022294609F0C1FC04F5D2
:100E10005A63EE6024359D42FBD1204670BD00BF71
:100E200010270208034B1A68D207FCD423229A60C9
:100E3000704700BF00B0024030B50F4C2568ED0789
:100E4000FCD423250904A56041F001010225FF2BF4
:100E500065636164E0630AD00849656241EA03633F
:100E6000E361074B22626061E060236030BDE561B1
:100E7000039BA363034BF8E700B0024009000100A5
:100E8000010002000100030001207047402070476C
:100E900000EB81100830704700EB8110083070477C
:100EA0000120704741F2B870704741F2B87303FBFC
:100EB00001000830704741F2B87303FB01000830AD
:100EC0007047012070471020704700EB0110083078
:100ED000704700EB011008307047084601F0A8BECB
:100EE00010B5034B0360044608F0BDFA204610BD60
:100EF000C827020810B50446FFF7F2FF2046482134
:100F00001FF0EAFE204610BD10B5034B03600446F7
:100F100008F0A9FA204610BD9427020810B504462F
:100F2000FFF7F2FF20464FF4BE511FF0D5FE2046DA
:100F300010BD000010B5034B0360044608F093FA9F
:100F4000204610BD6027020810B50446FFF7F2FFE7
:100F5000204618211FF0C0FE204610BD10B5094BD9
:100F60000360044600F5BF500C30FFF7B9FF04F1F1
:100F70002C00FFF7C9FF04F11400FFF7DBFF204648
:100F800010BD00BFFC27020808B50248FFF7E6FFC6
:100F900008BD00BF5810002010B50446FFF7DEFF63
:100FA000204641F694111FF097FE204610BD000028
:100FB0002DE9F34101F026FA054601F027FA002455
:100FC0000146234628462246009411F0EFFE264BA8
:100FD000264A274D1A60204603F034F8254811F0C0
:100FE0004DFE2B68BFF35B8FDB0737D428461FF01D
:100FF00075FE98B3204C214B236004F12C0808F5B2
:10100000BE5707F14C0604F114006060C4F8088074
:10101000E760266108F028FA194B6361404608F042
:1010200023FA184BE362384608F01EFA04F58053A1
:1010300003F63400144AC3F8EC2703F0BBF8224649
:1010400007F14801304603F06DF8304601F0F0FD3D
:101050000E481FF08DFE28461FF04CFE0C4802B0D3
:10106000BDE8F041FFF72EBCCC3A01202802002059
:10107000541000200800002058100020FC2702080F
:101080006027020894270208C8270208890F000871
:10109000AC010020704700000148FFF721BC00BFF1
:1010A000AC01002070B5224E224C234D234B23600F
:1010B0003046FFF79DFE284616F044F9204B2148A4
:1010C000DC6000224FF48071C3E912121E491A86B7
:1010D000C3E91A121D4999671D4983F858200B600E
:1010E000F02101801B485A6601801B4883F870205C
:1010F0004FF4A071C3E90422C3E90622C3E9082220
:10110000C3E90A22C3E90E22C3E91022C3E914226B
:10111000C3E917225A67C3E9016501800F480180BE
:101120000F490A70012283F834200E4A1A6070BDFC
:10113000B0020020501000202C020020442202089F
:10114000AC0100205C3A0120010000010000010117
:10115000683A0120623A01205E3A0120643A012097
:10116000603A0120D02302080148FFF7D1BC00BF3C
:10117000B00200200020704781807047C180704716
:1011800001817047418170477047704770477047D1
:10119000704710B4C4880368121B84885B6D091BF8
:1011A00012B25DF8044B09B218474FF6FF73838102
:1011B0004FF0FF3303621368C36110607047002073
:1011C00070478B88838001207047704780F8261015
:1011D000704790F82600704710B50022B1F908401A
:1011E000B1F90A10028042808480C18010BD0022C3
:1011F000028042808280C28070470000034B9022B0
:1012000083F85A2383F85823704700BF00E100E0B9
:10121000094A0A49D3680A48C3F30A03013B9BB24F
:101220000B801169C1F30A01013901801364536B0A
:1012300043F001035363704700680140EE2900202A
:10124000EC290020014BD3F8AC0070470068014046
:10125000024B0122C3F8AC105A627047006801408B
:1012600070B5044608F0FDFB23685D6E0EF018FCB7
:1012700001462046A8472368054AD3F888502046EF
:10128000AC460023BDE87040A2F51631604700BFB0
:1012900000B004D008F0CCBB08F0D6BB08F092BB7D
:1012A00008F0F3BC90F8252012B103685B69184779
:1012B000704790F825201AB190F8242002B11860E8
:1012C00070470000034B4FF080629A604FF08072CD
:1012D0009A60704700E100E0084B4FF08062C3F86D
:1012E0008820BFF34F8FBFF36F8F4FF08072C3F82A
:1012F0008820BFF34F8FBFF36F8F704700E100E08E
:1013000070B50023124E8380124B0360336893F84C
:10131000582005460AB1D86C00B998680368DB6AA2
:1013200098473368B0FA80F4D86C640930B1036828
:10133000DB6A9847002808BF44F001042CB9064B2B
:10134000064A07482C211FF0F5FC284670BD00BF57
:10135000683A01200C2902080828020866280208B9
:101360009F28020810B5144C236823B3134B144A6A
:101370001B6C11888B4213D1124B198804F016FB99
:10138000226892F86A30013382F86A30FFF794FBE2
:10139000206809F0A5F8BDE810400020FFF7D8B993
:1013A00004F004FB206803681B6A9847BDE81040FE
:1013B0000020FFF7F7B910BD683A0120006801402E
:1013C000EE290020EC29002007B5064BADF80600F9
:1013D0001B68054801220DF1060105F05DF803B018
:1013E0005DF804FB0C000020782A002008B564207A
:1013F00005F063FEFBE7000007B50A28019006D15F
:10140000084909484FF0FF33012205F0ECFC4FF08A
:10141000FF33012201A9044805F0E5FC019803B05F
:101420005DF804FB24290208302A002030B595B06D
:10143000102200210AA820F055F81422002103A848
:1014400020F050F800241D4B01941A6C42F0805299
:101450001A641B6C03F080530193019B184B029498
:101460001A6842F440421A601B6803F44043029336
:101470000122029B4FF48033CDE9082302254FF46B
:101480008003CDE90E5308214FF4A873CDE9101362
:1014900008A804231393129504F0A6FA0F23CDE9AC
:1014A00003354FF4A0504FF48053CDE906030521D6
:1014B00003A8059404F074FC15B030BD0038024058
:1014C0000070004080B59AB003F0E6F9FFF7AEFF78
:1014D000142200210DA8002420F004F8C74B00942A
:1014E0001A6BC74842F010021A631A6B02F010021E
:1014F0000092009A01941A6B42F020021A631A6B50
:1015000002F020020192019A02941A6B42F08002CA
:101510001A631A6B02F080020292029A03941A6B09
:1015200042F004021A631A6B02F004020392039A57
:1015300004941A6B42F001021A631A6B02F0010262
:101540000492049A05941A6B42F002021A631A6B11
:1015500002F002020592059A06941A6B42F04002CC
:101560001A631A6B02F040020692069A07941A6BED
:1015700042F008021A631B6B03F00803079322462C
:101580003C21079B03F010FC9E482246042103F0F7
:101590000BFC9D4822464FF4405103F005FC9B484C
:1015A00022464FF4405103F0FFFB224698484FF487
:1015B000005103F0F9FB01263C234FF0030890484B
:1015C000CDF840800DA90227CDE90D364FF0040972
:1015D0000F9403F0FFFA8B480F940DA94FF4881570
:1015E000CDE90D96109703F0F5FA8A480D960DA9EE
:1015F0004FF4405ACDE90E5403F0ECFA82480DA99D
:10160000CDE90DA6CDE90F4403F0E4FA7F480DA91A
:10161000CDE90DA6CDE90F4703F0DCFA4FF44063A6
:1016200078480F940DA9CDE90D354FF4005A03F019
:10163000D1FA77480DA9CDE90DA6CDE90F4403F005
:10164000C9FA74480F940DA9CDE90D6503F0C2FAEB
:1016500005212246282003F071F9282003F0A0F983
:101660006D486E4B6E4D036003F0A8F96D4A6E4BEA
:101670002C62C5E9002328464FF48043C5E90434B1
:10168000C5E90244C5E9064403F0A8FD1021284637
:1016900003F0ECFF2146284604F007F8634864494C
:1016A00084624FF48273C0E900134FF4007518236D
:1016B000C0E906530A235F4DC362C0E90244C0E992
:1016C0000444C0E9084404F08BFE5B4BC5F828A035
:1016D0004FF0100CC5E900364023C5E904C34FF4B0
:1016E000C073C5E906344FF40063C5E908340DA999
:1016F00007232846CDE90E39CDE910384FF0080A06
:10170000C5E90249CDE912770D9704F04DFD4FF67A
:10171000FF7209A92846CDE90AA6089409960C94F7
:1017200004F062FD304603F0E3F84FF6FF7209A9BA
:101730002846CDE9097ACDE90B6404F055FD4FF652
:10174000FF7209A92846CDE9098ACDE90B9404F076
:101750004BFD4FF40C730893089B0C934FF6FF72EC
:1017600009A92846CDE9099A0B9604F03DFD40F2FF
:101770006A51284604F056FD342221460DEB020042
:101780001FF0B0FE2D4D2E4B2C61C5E9003409230E
:10179000C5E905361D2340F20D1EC5E9073840F2A4
:1017A0004313C5E909E3284640F2471340F21718EE
:1017B000C5E90B83C5E90244AC8685F8364004F0E0
:1017C00014F8FF21F022CDE912144FF480690521AD
:1017D0004FF4A073CDE90E24CDE91491CDE9164262
:1017E0000DA922462846CDE91037164D18930D94C1
:1017F000ADF864408DF8664026E000BF0038024036
:10180000001002400008024000040240000C0240A8
:1018100000180240000002400C2C00200030024062
:10182000782B0020005C0040A0860100782A002070
:1018300000500140FC290020400100A0D02A0020D7
:1018400000680140F029002004F083F8214B2B6050
:101850001B68DFF8ACA098472B681F4DDB689847E2
:101860001E4B2846C5E90034C5E90274C5E90A479C
:10187000C5E90C4403F0B2F83146284603F066F996
:1018800017484FF4E133C0E900A30C23C0E9053445
:10189000C0E902440461C46105F076FAFEF79AFEDD
:1018A000FEF797FE0F481FF01DFD05F093FB0E4A53
:1018B0000E48214605F0BAFB0D4B0E4A1860214632
:1018C0000D4805F0B3FB0D4B186000F033FD05F03B
:1018D00093FBFEE718000020CC2B002000B0024054
:1018E000302A00202629020870290208ED1300087A
:1018F000F82900204C290208E3050008F4290020FB
:1019000000100140704770477FB5094B8DF81720D4
:101910001B6802930DF117020123009201930A46FE
:101920000146044803F002FD07B05DF804FB00BF68
:1019300010000020782B00207FB500238DF8173091
:10194000084B1B6802930A4601230DF11701009111
:1019500001930146044803F079FD9DF8170007B094
:101960005DF804FB10000020782B00201FB5084C08
:1019700024680092CDE901340A4601230146054856
:1019800003F064FD003818BF012004B010BD00BF93
:1019900010000020782B002002F0AABF10B5064CE2
:1019A00000222046042103F0FFF920460122BDE871
:1019B0001040042103F0F8B90008024038B50B4D7F
:1019C000044601220A484FF4005103F0EDF90022C9
:1019D0000421284603F0E8F92046FFF7F5FC2846E5
:1019E0000122BDE83840042103F0DEB900080240BE
:1019F000000C024038B50B4D044600220A484FF453
:101A0000005103F0D1F900220421284603F0CCF95B
:101A10002046FFF7D9FC28460122BDE838400421C2
:101A200003F0C2B900080240000C0240F7B5144EA2
:101A3000144F05460C4630460022042103F0B4F949
:101A400000224FF40051384603F0AEF92846FFF764
:101A5000BBFC0D4B0D481B68224601A904F0C8FED3
:101A6000384601224FF40051019C03F09DF93046A5
:101A70000122042103F098F9204603B0F0BD00BF15
:101A800000080240000C02400C000020782A0020D0
:101A900002F02EBF0268034B9A4201D102F016BF3A
:101AA000704700BF001000407047000082B00E4B2E
:101AB00000220092596C41F480415964596C01F440
:101AC0008041009100990192196C41F08051196494
:101AD0001B6C03F080530193019B0F216FF00100F9
:101AE00002B002F02BBF00BF003802400268094B71
:101AF0009A4282B00BD100230193074B1A6B42F438
:101B000080521A631B6B03F480530193019B02B054
:101B1000704700BF003002400038024007B50F4B4D
:101B200002689A4216D10022A3F5F0430192196B84
:101B300041F4000119631B6B03F4000301930521B9
:101B40005A20019B02F0FAFE5A2003B05DF804EB24
:101B500002F026BF03B05DF804FB00BF00B00240F6
:101B60002DE9F043044689B01422002103A81FF098
:101B7000B9FC2268244B9A4243D1244C24480025C6
:101B80000095236B43F004032363236B03F00403EA
:101B90000093009B0195236B43F001032363236BA8
:101BA00003F001030193019B4FF012094FF40073FE
:101BB0004FF001080327042603A9CDE90339CDE935
:101BC0000587079603F006F84FF4807311480796CF
:101BD00003A9CDE90339CDE9058702F0FBFF0295A2
:101BE000236C43F400032364236C03F40003029387
:101BF000029B236A43F400032362236A23F4000355
:101C0000236209B0BDE8F083005C00400038024068
:101C10000008024000000240F0B599B004461422CA
:101C2000002107A81FF05EFC30220DEB020000210E
:101C30001FF058FC22685E4B9A4240F0B7800823A0
:101C40000C93C0231093042312930CA84FF4003379
:101C5000159304F07DF908B1FFF726FF554B564860
:101C6000002400945A6C42F080625A645A6C02F06C
:101C700080620092009A01941A6B42F020021A636B
:101C80001A6B02F020020192019A02941A6B42F040
:101C900001021A631A6B02F001020292029A039483
:101CA0001A6B42F002021A631A6B02F002020392EC
:101CB000039A04941A6B42F040021A631A6B02F002
:101CC00040020492049A05941A6B42F004021A63CB
:101CD0001A6B02F004020592059A06941A6B42F000
:101CE00008021A631B6B03F00803069302250E26F5
:101CF000069B0B964FF4806307A9CDE90735CDE924
:101D0000094502F067FF41F658032C480B9607A9D6
:101D1000CDE907350927CDE9094502F05BFF03232B
:101D200027480B9707A9CDE90735CDE9094502F00A
:101D300051FF4FF4706322480B9607A9CDE9073590
:101D4000CDE9094502F046FF4FF40C631D480B96A0
:101D500007A9CDE90735CDE9094502F03BFFC023CE
:101D600019480B9607A9CDE90735CDE9094502F0D9
:101D700031FF082315480B9607A9CDE90735CDE9B2
:101D8000094502F027FF4FF4A0530E480B9707A90F
:101D9000CDE90735CDE9094502F01CFF5820224660
:101DA000052102F0CBFD582002F0FAFD19B0F0BD7C
:101DB0000068014000380240001402400000024068
:101DC000000402400018024000080240000C0240DB
:101DD00010B5044688B01422002103A81FF082FB2E
:101DE0002268144B9A4223D103F5684300210191E4
:101DF0005A6C114842F480125A645A6C02F48012F0
:101E00000192019A02911A6B42F020021A631B6B35
:101E100003F020030293029B4FF46072022303211C
:101E2000CDE903230523CDE9061303A902F0D2FE71
:101E300008B010BD005001400014024010B5044627
:101E400088B01422002103A81FF04CFB2268144B19
:101E50009A4223D103F59433002101915A6C114821
:101E600042F010025A645A6C02F010020192019A78
:101E700002911A6B42F001021A631B6B03F001031B
:101E80000293029B4FF4C06202230321CDE9032396
:101E90000723CDE9061303A902F09CFE08B010BD8C
:101EA00000100140000002402DE9F04186B00023FF
:101EB00003932B4B1C68002C4FD14FF00108C3F843
:101EC0000080284B00949A6B274842EA08029A63E4
:101ED0009B6B03EA08030093022703260C25009B53
:101EE00001A94FF63F03CDE90137CDE9046502F0C2
:101EF00071FE1E48059501A9CDE90187CDE903468C
:101F000002F068FE48F233131948059501A9CDE99E
:101F10000137CDE9034602F05DFE4FF683731548A5
:101F2000059501A9CDE90137CDE9034602F052FE3E
:101F30004CF203731048059501A9CDE90137CDE9AD
:101F4000034602F047FE60230C48059501A9CDE940
:101F50000137CDE9034602F03DFE06B0BDE8F08151
:101F6000142C0020003802400014024000080240F7
:101F70000018024000100240000C02400004024021
:101F800070B588B000230293204B1A6C42F0100207
:101F90001A641B6C03F010030293054601A903A801
:101FA000029B03F0B7FF069B4BBB03F093FF184E59
:101FB000184B336040F2E733F360174BB0FBF3F399
:101FC000013B7360304600233361B360B36104F0BA
:101FD000EFFD044680B9304604F0AEFC044658B923
:101FE000362002F0DDFC0F2D0DD822462946362082
:101FF00002F0A4FC094B1D60204608B070BD03F040
:1020000069FF4000D3E70124F6E700BF0038024033
:10201000182C00200010004040420F0080000020DB
:102020007047FEE7FEE7FEE7FEE77047014804F071
:10203000C1BC00BF182C0020014803F02DBC00BF1C
:10204000D02A0020014802F0F7BC00BFCC2B0020B2
:1020500008B54FF4806002F0B5FEBDE808404FF4CB
:10206000006002F0AFBE0120704708B51FF0DCFA37
:10207000162303604FF0FF3008BD08B51FF0D4FAF7
:1020800016230360FEE770B50D4614460E46731B1B
:102090009C4201DC204670BDAFF3008006F8010BC6
:1020A000F5E770B50D4614460E46731B9C4201DCE5
:1020B000204670BD16F8010BFFF79EF9F5E74FF0CB
:1020C000FF3070474FF400534B60002070470120F1
:1020D00070470020704700000A4A116808B503469F
:1020E00009B9094911601068694603448B4206D951
:1020F0001FF09AFA0C2303604FF0FF3008BD136005
:10210000FCE700BF602C0020A046012013B50D485D
:102110000D4C1FF0E7F80A230C4900934FF40072AE
:10212000002301940A4806F0C2FA206806F086FDF2
:1021300008481FF0D7F8002002B0BDE8104006F0B4
:10214000E5BA00BF942902087C2C0020A8290208C7
:1021500079210008B9290208054B06491A6843F29B
:10216000390001FB02001860C0F30E40704700BF49
:10217000140000206D4EC6412DE9F04792B05C4B33
:102180005C4801931FF0AEF84FF47A7006F0F8FC4B
:1021900059485A4E5A4F1FF0A5F84FF47A7006F07E
:1021A000EFFC58481FF09EF84FF47A7006F0E8FCF8
:1021B00055481FF097F84FF47A7006F0E1FC0025BF
:1021C000FFF7CAFF044640F2DC5006F0D9FC306845
:1021D00006F040F8824660B100220AA9306805F096
:1021E00091FE4A481FF07EF84FF47A7006F0C8FC62
:1021F000E6E7002C04F00104B8BF6442444B33F816
:10220000149001224946384602F0CEFD04F10C023A
:10221000214640481EF0FEFF02F064FBADF828A006
:1022200012ABDFF808A1804603EB440430684FF09E
:10223000FF320AA905F066FE0128F7D1BDF8283063
:1022400034F8442C9A4208D0B3F5806F14BF0B21A8
:102250000A2150461EF0DEFFE8E702F043FBA0EB48
:10226000080ADFF8CC802C482C4C48F825A05146B1
:102270001EF0D0FF2A49524602A81FF03BF8206802
:1022800030B102A901F09FFF2068514601F0A1FF83
:1022900000224946384602F087FD01354FF47A7036
:1022A00006F06EFC052D8BD1D8F80030D8F804204C
:1022B0001C481344D8F808201344D8F80C201344C1
:1022C000D8F810201A44B2FBF5F529461EF0A2FFFB
:1022D00015492A460AA81FF00DF8206810B10AA96E
:1022E00001F071FF002006F0A9FC12B0BDE8F087F4
:1022F00000040008CD290208D7290208782C002004
:1023000000040240D9290208DB290208DD2902085D
:10231000C22A0208172A0208482A0208FC2C0020B8
:10232000852A02085F2A02087D2A0208292A020853
:10233000642C002007B50C481EF0D4FF00220221B7
:102340000A2005F018FC094B09491860094B019354
:10235000142300934FF480720023074806F0A7F976
:1023600003B05DF804FB00BF8C2A0208782C002023
:102370009B2A0208802C00200D2100081FB5B0F513
:10238000806F4FF00003ADF80600039304D0B0F562
:10239000006F19D10B2100E00A210D481EF03AFF11
:1023A0000C480023006803AA0DF1060105F0FCFCAF
:1023B000039B4BB14FF0E0234FF08052C3F8042D44
:1023C000BFF34F8FBFF36F8F05B05DF804FB00BF05
:1023D000A42A0208782C0020704710B50421044676
:1023E0001EF07AFC204610BD08B519B1012905D0B0
:1023F000002008BD01F072FE0068FAE701F06EFEF1
:102400004068F6E700487047DC2A02080820704759
:1024100013B5002451B1036801948DF8034001AA5B
:102420009C680DF10303A04702B010BD0846FBE70E
:10243000C0897047008A7047C0887047808870479D
:10244000807A00F07F007047807AC009704770473B
:1024500010B5082104461EF03FFC204610BD704711
:10246000704700F598730868496803C37047704760
:102470007047416070477047064BC0F84C310023ED
:10248000C0F8503100F5A273C0F84801C0F84031DF
:10249000704700BFE92600080123037270477047A8
:1024A00070477047704710B4C268416854100346C3
:1024B00001EB6200D20748BF0A599B685DF8044BE4
:1024C00048BFD35818470346406830B19A681AB9D4
:1024D000D86800F0010070470120704710B50C214A
:1024E00004461EF0F9FB204610BD10B5102104462D
:1024F0001EF0F2FB204610BD10B54FF4AE7104463D
:102500001EF0EAFB204610BD10B5402104461EF027
:10251000E3FB204610BD10B5402104461EF0DCFB55
:10252000204610BD10B50DF0BBFA0368BDE81040A1
:10253000DB6B1847054B1B7801462BB1406818B17F
:1025400003680C315B6E1847704700BF673A012083
:10255000054B1B7801462BB1406818B103680C315C
:102560005B6E1847704700BF673A0120037A70B569
:102570000546BBB940680368DB69984704463CB927
:102580006868036805F10C011B6EBDE870401847D0
:10259000A1886B8FC91A236820461B6B09B2984724
:1025A000A469ECE770BD037A70B50546BBB9406815
:1025B0000368DB69984704463CB96868036805F11D
:1025C0000C011B6EBDE870401847A1886B8FC91ABB
:1025D000236820461B6B09B29847A469ECE770BDDD
:1025E00010B50446D0F8400158B10368DB6898473D
:1025F00038B1D4F8400103689B6898470023C4F8B9
:10260000403110BD70B5044690F8390094F8383068
:102610000130C0B2984284F8390005D901232372F1
:10262000002384F8393070BDB4F93A2000210EF04F
:10263000D5FFC30706D500284FF6FF73C8BF012397
:10264000184400B2238AC01AA08760680368DB6957
:10265000984705462DB960680368BDE870405B691E
:102660001847A988A38F19442B6828461B6B09B209
:102670009847AD69EEE770B5044690F8390094F8D4
:1026800038300130C0B2984284F8390005D90123AE
:102690002372002384F8393070BDB4F93A20002148
:1026A0000EF09CFFC30706D500284FF6FF73C8BF86
:1026B0000123184400B2238AC01AA0876068036807
:1026C000DB69984705462DB960680368BDE870402E
:1026D0005B691847A988A38F19442B6828461B6B90
:1026E00009B29847AD69EEE72DE9F14FD0E9556A97
:1026F0000746B06803681B6A9847B0F59E7F05D20D
:10270000444B454AA32145481EF014FB70680368FA
:102710001B6A98470F2803D8414B3F4AA421F2E790
:10272000F06803681B6A98470B2803D83D4B3A4A68
:10273000A521E8E70DF0B4F9DFF8F09004300DF0D2
:10274000D4F9D9F8000010B10368DB689847D9F8CC
:10275000000010B103681B689847DFF8D480D8F8F0
:10276000000010B103685B699847D7F83C0110B1CD
:1027700003685B689847D8F8000010B103681B68CD
:102780009847D7F83C0110B103689B689847F068F8
:10279000036800215B6A98474FF0000B224BC0F89A
:1027A00004B0044680F808B00360B0680368594676
:1027B0005B6A9847054601F0F1FC7068036859466A
:1027C0005B6A98472946064601F0C6FC331DC7F8E8
:1027D0003C61C9F80040C8F80050CAF800302B68C6
:1027E000C6F808A02846DB68EE6398473368304691
:1027F0001B689847214628460EF0EAFE23682046CB
:102800001B69984723685B69204601B0BDE8F04F1B
:10281000184700BF8C2B02081A2C0208E62C02086D
:102820002D2D0208D02D0208B8300208B03A012040
:10283000AC3A01202DE9F0411D460368BDF918703E
:102840001B6B0446164698472368314620465B6B4F
:1028500098472368294620469B6B9847236839464A
:102860002046DB6BBDE8F041184700002DE9F74F2B
:10287000D0E9556A0746B06803681B6A984741F279
:10288000B773984205D8544B544AA32154481EF0BC
:1028900051FA706803681B6A98470F2803D8514B98
:1028A0004E4AA421F2E7F06803681B6A98473F2864
:1028B00003D84D4B494AA521E8E70DF0F1F8DFF8C0
:1028C000389104300DF011F9D9F8000010B1036807
:1028D000DB689847D9F8000010B103681B68984777
:1028E000DFF81881D8F8000010B103685B699847D9
:1028F000D7F83C0110B103685B689847D8F800002E
:1029000010B103681B689847D7F83C0110B1036801
:102910009B689847F068036800215B6A9847054602
:102920000022324B4260027245F80C3B04462846B6
:1029300009F042FE142323872D4B1B780022A28727
:10294000002B35D101232372B068036800215B6A34
:102950009847054601F082FC7068036800215B6AB5
:1029600098472946064601F057FC331DC7F83C61DD
:10297000C9F80040C8F80050CAF800302B68C6F803
:1029800008A02846DB68EE639847336830461B682A
:102990009847214628460EF01BFE236820461B69F7
:1029A000984723685B69204603B0BDE8F04F18479D
:1029B000104BDFF84CB0B3F900300093BBF9003096
:1029C00011462846FFF736FF284609F071FDBBF88F
:1029D00000305B426387B7E78C2B0208732E020836
:1029E000E62C02082D2D0208D02D02080031020825
:1029F000673A01205E3A0120B03A0120AC3A01204A
:102A00005C3A01202DE9F74FD0E9556A0746B068D6
:102A100003681B6A9847B0F59E7F05D2534B544A12
:102A2000A32154481EF086F9706803681B6A984712
:102A30000F2803D8504B4E4AA421F2E7F0680368F0
:102A40001B6A98473F2803D84C4B494AA521E8E721
:102A50000DF026F8DFF8349104300DF046F8D9F87F
:102A6000000010B10368DB689847D9F8000010B186
:102A700003681B689847DFF81881D8F8000010B188
:102A800003685B699847D7F83C0110B103685B683D
:102A90009847D8F8000010B103681B689847D7F82A
:102AA0003C0110B103689B689847F06803680021F7
:102AB0005B6A984705460022314B4260027245F836
:102AC0000C3B0446284609F077FD142323872D4B41
:102AD0001B780022A287002B35D101232372B06816
:102AE000036800215B6A9847054601F057FB706850
:102AF000036800215B6A98472946064601F02CFBD3
:102B0000331DC7F83C61C9F80040C8F80050CAF846
:102B100000302B68C6F808A02846DB68EE639847AB
:102B2000336830461B689847214628460EF050FD12
:102B3000236820461B69984723685B69204603B0D9
:102B4000BDE8F04F1847104BDFF848B0B3F900303C
:102B50000093BBF9003011462846FFF76BFE28466C
:102B600009F0A6FCBBF800306387B8E78C2B02089D
:102B7000642F0208E62C02082D2D0208D02D020831
:102B8000DC300208673A01205E3A0120B03A0120A9
:102B9000AC3A01205C3A0120044B1B6893F85820A2
:102BA0000AB1D86C00B99868704700BF683A012034
:102BB000F8B5044617460E460DF034F8104B1C606D
:102BC000104B2360104B0025C4E951350F4BC4E96D
:102BD00053551868036829469B68C4E94F55C4E9F2
:102BE00055769847284601F02DFAFFF7D5FF16F0E5
:102BF000D8F9FFF7D1FF16F04FFA2046F8BD00BF15
:102C0000BC3A0120643002084C300208683A0120C6
:102C1000064BC0F84C310023C0F8503100F5A273C8
:102C2000C0F84801C0F84031704700BF6D28000867
:102C3000064BC0F84C310023C0F8503100F5A273A8
:102C4000C0F84801C0F84031704700BFE9260008CD
:102C5000064BC0F84C310023C0F8503100F5A27388
:102C6000C0F84801C0F84031704700BF052A00088D
:102C7000406A7047806A704770478B88C0690A68ED
:102C8000DB0A50F823001044704710B50446BAB16F
:102C9000107B68B1537BD27A1B0203F4E0631A43C2
:102CA000236A03EB82031A888A4202D193F9020055
:102CB00010BD05D8013880B204330028F3D1F7E7FE
:102CC0000020F5E710B52C2104461EF005F820463B
:102CD00010BD000030B58BB00446BDF860500895BB
:102CE000BDF85C5007959DF8505006959DF84C50E6
:102CF00005959DF8485004959DF8445003959DF81E
:102D0000405002959DF83C500195BDF83850009513
:102D10000DF0EAFF064B2360159BE361169B2362CF
:102D2000199B63621A9BA36220460BB030BD00BFA3
:102D300024310208704770477047704770477047EA
:102D40007047704730B4C26844685510034604EBBE
:102D50006200D20748BF62599B6830BC48BFD35855
:102D600018470346406830B19A681AB9D86800F02D
:102D7000010070470120704710B5102104461DF076
:102D8000ABFF204610BD10B54FF49C7104461DF0FA
:102D9000A3FF204610BDE030884208B505D10CF0F5
:102DA0007FFEBDE80840FFF733BF08BD70B503687C
:102DB00004461B6B154698472368294620465B6BE3
:102DC000BDE87040184700000022C0E90122C0E9B8
:102DD0000322C0E90522C0E907224FF480728284F1
:102DE000014A0260704700BF48320208F8B5194B2B
:102DF000018F1B888B4206462AD9174B1B682BB9BB
:102E0000164B174A17486C211DF094FF13F8112038
:102E1000154B1B6853F82250144B186801F04EF9FB
:102E20002B6807469B6B284698472B6804469B6C8B
:102E30003946284698472B6814FB00F45B6A3946EC
:102E400028469847A4B223181BB2A6F84630F8BD0E
:102E50000023FAE7C43A0120C03A01207C3102087D
:102E6000BE310208F9310208C83A0120CC3A0120EB
:102E70002DE9F04F044689B0264600250EF0FCF9F6
:102E8000614BE56346F8403B4FF026094A46294628
:102E900030461EF027FB3046FFF796FF04F16C0822
:102EA0005A4B2364FF274A46294684F86670A56674
:102EB0004FF6FF7A4046ADF818A01EF013FB4046CF
:102EC000FFF782FF524BE366BDF81830A4F892304A
:102ED00084F8947006A904F1980740460AF038F97E
:102EE00029464A4638461EF0FDFA3846FFF76CFF81
:102EF000484BC4F8983004F1E009474BC4F8C0309F
:102F00004FF0FF3B4FF47F02C4E936B5A4F8C4A0EC
:102F1000C4F8C850C4F8CC20A4F8D050C4F8D45099
:102F200048460AF057FA3D4AC4E94A243C4A294631
:102F3000C4E94C2530462A46FFF738FF30464FF4A7
:102F4000A071FEF71DF93046F021FEF71BF904F1E0
:102F5000040A4FF07F42A2663146504606F096FAC8
:102F60002A4629464046FFF721FF06A94046ADF80C
:102F700018500AF0EDF84146504606F087FA312223
:102F800038460721FFF712FFA4F8CC506D463946AA
:102F90002846C4F8C8B009F00FFC95E807001E4B9E
:102FA000069304F1D40686E80700062306A93846EE
:102FB000ADF81C3009F0A8FE3946504606F066FA16
:102FC000484678222821FFF7F1FE022306AA05A928
:102FD000ADF8143048460323ADF8183009F0F1FE7F
:102FE0000523A4F818314846FFF700FF04F5947351
:102FF0005046C4E947BBC4F80831494606F046FAD2
:10300000204609B0BDE8F08FC8320208CC42020861
:103010009C4302083C420208842B0208B03202089A
:10302000972D0008806A704780F82C10704710B404
:103030000368046BD3F8A430624361435DF8044B2A
:103040001847D0ED0C7A0368F8EEE77A10B420EE5A
:10305000270AD3F8A440B5EEC00AF1EE10FA1ADB45
:10306000B6EE007A30EE070ABDEEC07A17EE101AFF
:1030700060EEA70AF5EEC00AF1EE10FA1EDBF6EEDE
:10308000007A70EEA70AFDEEE07A17EE902A23464A
:103090005DF8044B1847BDEEC07AF8EEC76A17EE2C
:1030A000103A30EE660AF7EE086A30EE260A013B67
:1030B000BDEEC00A10EE101A1944D9E7FDEEE07A11
:1030C000B8EEE77A17EE903A70EEC70AB7EE087AD4
:1030D00070EE870A013BFDEEE00A10EE902A1A44DA
:1030E000D5E710B40368046BD3F8B03062435DF8E1
:1030F000044B1847D0ED0C7A0368F8EEE77A10B469
:1031000027EE800AD3F8B040B5EEC00AF1EE10FA0F
:103110000BDBF6EE007A30EE270AFDEEC07A17EEF2
:10312000902A23465DF8044B1847FDEEC07AB8EEAE
:10313000E77A17EE903A30EE470AB7EE087A30EEAB
:10314000070A013BBDEEC00A10EE102A1A44E8E758
:1031500010B40368446BD3F8BC30624361435DF83C
:10316000044B1847D0ED0D7A0368F8EEE77A10B4F7
:1031700020EE270AD3F8BC40B5EEC00AF1EE10FAF3
:103180001ADBB6EE007A30EE070ABDEEC07A17EE13
:10319000101A60EEA70AF5EEC00AF1EE10FA1EDB77
:1031A000F6EE007A70EEA70AFDEEE07A17EE902AAE
:1031B00023465DF8044B1847BDEEC07AF8EEC76AA7
:1031C00017EE103A30EE660AF7EE086A30EE260A7D
:1031D000013BBDEEC00A10EE101A1944D9E7FDEE0E
:1031E000E07AB8EEE77A17EE903A70EEC70AB7EEDB
:1031F000087A70EE870A013BFDEEE00A10EE902A95
:103200001A44D5E710B40368446BD3F8C030624366
:103210005DF8044B1847D0ED0D7A0368F8EEE77AB5
:1032200010B427EE800AD3F8C040B5EEC00AF1EE24
:1032300010FA0BDBF6EE007A30EE270AFDEEC07ACC
:1032400017EE902A23465DF8044B1847FDEEC07A2E
:10325000B8EEE77A17EE903A30EE470AB7EE087A02
:1032600030EE070A013BBDEEC00A10EE102A1A44E8
:10327000E8E7D0F82C31026B002B07DB02EB4300B0
:1032800090FBF2F000EBD070401070476FF001013E
:1032900001FB0320013890FBF2F000EBD0704010EE
:1032A00040427047D0ED4B7A90ED0C0AF8EEE77A89
:1032B000B8EEC00A87EE800A7047D0F82C0170473C
:1032C000D0F83031026B002B07DB02EB430090FBA0
:1032D000F2F000EBD070401070476FF0010101FB7D
:1032E0000320013890FBF2F000EBD0704010404218
:1032F0007047D0ED4C7A90ED0C0AF8EEE77AB8EE14
:10330000C00A87EE800A7047D0F830017047D0F8C5
:103310003431426B002B07DB02EB430090FBF2F0F1
:1033200000EBD070401070476FF0010101FB0320EB
:10333000013890FBF2F000EBD07040104042704733
:10334000D0ED4D7A90ED0D0AF8EEE77AB8EEC00AAE
:1033500087EE800A7047D0F834017047D0F83831D2
:10336000426B002B07DB02EB430090FBF2F000EB1B
:10337000D070401070476FF0010101FB032001384D
:1033800090FBF2F000EBD070401040427047D0ED5F
:103390004E7A90ED0D0AF8EEE77AB8EEC00A87EEA5
:1033A000800A7047D0F83801704770B5036804464A
:1033B000D3F888300D46164698472368324629468A
:1033C0002046D3F89030BDE8704018470368D3F822
:1033D000943018470368D3F8D43018470368D3F8FB
:1033E000E03018470368002A10B4D3F8A430046B07
:1033F0000EDB04EB420292FBF4F101EBD1714910B8
:10340000B0F91E215DF8044B013A0A4449421847BD
:103410006FF0010101FB0241013991FBF4F101EB75
:10342000D17149104942EBE70368D3F83C311847A2
:10343000026B03685143D3F8483118470368D3F847
:1034400044311847D0ED0C7A0368F8EEE77AD3F8E8
:10345000482127EE800AB5EEC00AF1EE10FA08DB2B
:10346000F6EE007A30EE270AFDEEC07A17EE901ADB
:103470001047FDEEC07AB8EEE77A17EE903A30EEDC
:10348000470AB7EE087A30EE070A013BBDEEC00AE4
:1034900010EE101A1944EBE7C0F83C1170470368AE
:1034A000D3F850311847036810B5D3F85C3104469F
:1034B00098470028236B07DB03EB400090FBF3F0F9
:1034C00000EBD070401010BD6FF0010202FB003025
:1034D000013890FBF3F000EBD07040104042F2E76F
:1034E0000368D3F858311847036810B5D3F85C3136
:1034F0000446984794ED0C0A07EE900AB8EEC00A0D
:10350000F8EEE77A87EE800A10BDD0F83C017047EC
:10351000026B03685143D3F868311847D0ED0C7A39
:103520000368F8EEE77AD3F8682127EE800AB5EE53
:10353000C00AF1EE10FA08DBF6EE007A30EE270A48
:10354000FDEEC07A17EE901A1047FDEEC07AB8EE85
:10355000E77A17EE903A30EE470AB7EE087A30EE87
:10356000070A013BBDEEC00A10EE101A1944EBE742
:10357000C0F840117047036810B5D3F874310446A1
:1035800098470028236B07DB03EB400090FBF3F028
:1035900000EBD070401010BD6FF0010202FB003054
:1035A000013890FBF3F000EBD07040104042F2E79E
:1035B000036810B5D3F874310446984794ED0C0AAB
:1035C00007EE900AB8EEC00AF8EEE77A87EE800AB6
:1035D00010BDD0F840017047084670470368026B81
:1035E000D3F88431002910B504460EDB02EB41010B
:1035F00091FBF2F101EBD171491009B220469847D5
:10360000D4E94F2302FB003010BD6FF0010000FB36
:103610000121013991FBF2F101EBD17149104942CD
:10362000EBE7006B7047406B70470368D3F8483195
:1036300018470368D3F85C311847026B036851439D
:10364000D3F814311847036870B5D3F81851D3F87C
:103650008031D0F84461044698472B4656F8201034
:103660002046BDE870401847D0F84831B0F91E0137
:103670001944081A7047C1627047C06A7047012038
:10368000704770477047C06B18B10368D3F880303B
:103690001847704730B5B2F91651B2F81841B2F870
:1036A0004010B2F9422005802C44091B00244480BC
:1036B0008180C28030BD02808380BDF90020BDF9C9
:1036C00004304280C38070470B680846D3F8EC3062
:1036D00018470B680846D3F8F8301847B1F91601B7
:1036E0007047B1F81631B1F81821B1F84000134411
:1036F000C01A00B27047B1F914017047B1F8143123
:10370000B1F81A21B1F842001344C01A00B2704750
:103710000B680846D3F818311146184730B50368CE
:10372000018185B06D460146D3F8843004462846B1
:10373000984795E807003C3484E8070005B030BDA1
:1037400030B50368418185B06D460146D3F88430B9
:1037500004462846984795E807003C3484E807006B
:1037600005B030BD0022028042808280C280704756
:1037700080F83610704770B5036804461B6B154619
:1037800098472368294620465B6EBDE8704018477D
:1037900000207047806C70477047704770477047D3
:1037A000704730B4C26844685510034604EB6200A9
:1037B000D20748BF62599B6830BC48BFD3581847EE
:1037C0000346406830B19A681AB9D86800F0010021
:1037D00070470120704710B54C2104461DF07CFA5B
:1037E000204610BD10B5402104461DF075FA204654
:1037F00010BD10B54FF4B07104461DF06DFA2046AF
:1038000010BD10B5102104461DF066FA204610BD0B
:1038100038B50346D3E90C540B680846D3F8943006
:103820009847294602462046BDE8384007F0BEBC0E
:1038300010B5034B036004460AF092FC204610BD0D
:103840005037020810B5064B036004460AF088FCA6
:10385000204641F274711DF03FFA204610BD00BFB2
:103860005037020808B590F82C300BB1FDF71AFD5F
:1038700008BD08B5FDF716FD08BD00000A1E10B50D
:1038800003DBB0F91E41944206DC084B084A0948A4
:1038900040F239611DF04EFA0368D0F84441D3F884
:1038A0008031984754F8200010BD00BFF432020860
:1038B00017330208663302080B1E10B5044603DBFB
:1038C000B0F91E219A4206DC074B084A084840F22C
:1038D00033611DF02FFA0368D3F884319847D4E997
:1038E0004F2302FB003010BDF4320208C33302083C
:1038F00066330208036870B55E6B124B1B680446A2
:103900008DB22BB9104B114A6C2111481DF012FADF
:103910001049828D0988914203D80F4B0B4A6D21C3
:10392000F3E713F812200D4B1B6853F822000368CD
:103930001B6B9847291A3346204609B2BDE87040F0
:10394000184700BFC03A01207C310208BE3102088E
:10395000F9310208C43A012012340208C83A0120A1
:1039600000F55270884208B505D10CF099F8BDE811
:103970000840FFF76DB908BD00224FF0FF31C0E9E4
:10398000002182607047000010B526220446002105
:103990001DF0A8FD2046FFF717FA044B2360FF2314
:1039A00084F826300023A362204610BDCC420208D2
:1039B00037B501AB15460DF095FA00284FEA4014D3
:1039C00001992A464FF0200004DB0DF0AAFA2044AA
:1039D00003B030BD0DF0A5FA201AF9E770B5B0F8C4
:1039E0001A31B0F91441B0F842502344ED1AD0E92D
:1039F0004D320E462DB2D21A691EF01AFFF7D8FFCB
:103A00002C44013CC0EB441070BD38B504460D4653
:103A1000B4F81631B4F818110B44B4F84010D0E9DA
:103A20004B02C91A09B2121A0139281AFFF7C0FF4E
:103A3000B4F9163100EB431038BD000010B5044650
:103A400006F08AFF0A4A226000230122C4E90C23FF
:103A5000084AA2634FF6FF72A2872E22E36284F81F
:103A60004030A4F84230A4F84420A364204610BD9E
:103A70002C410208842B02082DE9F04F044693B034
:103A8000A24600250DF0F8FBE34BE5634AF8403B06
:103A900004F16C095046FFF777FF4FF6FF782622B6
:103AA00029464846ADF840801DF01CFD4846FFF70A
:103AB0008BF9DA4BE366BDF84030A4F8923010A9D8
:103AC00084F89480484609F043FB04F198031846B3
:103AD00004F1CC070493FFF757FFD14BC4F898309B
:103AE000C4F8C450A4F8C8500521384607F0FAFAC3
:103AF000CC4BC4F8CC30012604F5067329460422C9
:103B0000C4E98265C4E984353846FFF790FAC64BAC
:103B1000C4F8CC3004F50B731846059306F01CFF6F
:103B20000A23C4F86032C14BC4F82C3204F51B736D
:103B3000C4E9965684F86462C4F86852184606933D
:103B4000FFF77CFFBA4BC4F86C3204F52E731846AD
:103B50000793FFF773FFB74BC4F8B83204F541730E
:103B60001846089306F0F8FEB34BC4F804334FF040
:103B7000020384F8303304F54D7318460993FDF7BA
:103B8000BFFBAE4BC4F834332433C4F83C3304F5E4
:103B9000527304F5647B1846C4F84053039309F04C
:103BA00019FC2946262258461DF09CFC5846FFF772
:103BB0000BF9A34BC4F8B8334FF47F03C4F8C433F4
:103BC000A04BC4F890334FF0FF3204F58053C4E9A2
:103BD000F4259D4AA4F8BC83C4F8C053A4F8C85384
:103BE000C4F8CC53C4F8D853C3F86427974AC3F831
:103BF0006847C3F86C27C3F8705704F2A4404FF429
:103C000096510AF0A3FAF0224FF4A07300922946CD
:103C10002A465046FEF70EFE04F104084FF07F429C
:103C2000A2665146404605F031FC2A4629464846E0
:103C3000FFF7BCF810A94846ADF8405009F088FAE3
:103C40004946404605F022FCF0220498009229469D
:103C50002A464FF4A073FEF7EDFD4FF0FF334FF00F
:103C60007F42C4E930320499A4F8C860404605F0A8
:103C70000DFCA323009329464FF4A07338464D2230
:103C8000FEF7D8FD2A4631463846FFF78EFB31460F
:103C900038460522FFF7CBF9162300933846132345
:103CA0001C220A2107F0CFF906222B460092384643
:103CB000022107F0CBF8294638464FF47A72FFF715
:103CC00047FAD4F85C12DFF8889184F864624FF008
:103CD000C80A0AFB01F00028B8BF40423246C4F8C7
:103CE0005892C4F8600207F061FA0599C4E9976038
:103CF000384607F0B6F8D4F89C12C4F8989281EAD6
:103D0000E1700323A0EBE170A4F8A8323246C4F8B6
:103D1000A00207F04BFA0699C4E9A760384607F0FD
:103D2000C4F8D4F8E812C4F8E4920AFB01F00028C1
:103D3000B8BF40424FF00202A4F8F422C4F8EC02EB
:103D4000324607F033FA0799C4E9BA60384607F0FB
:103D50009AF8099AC4F82C2341F2B8434FF00202B2
:103D6000A4F8443384F830230899C4F840933846C3
:103D700007F077F83946404605F088FB03982A4655
:103D80004FF48E71FFF712F810AA0FA90398ADF83F
:103D90003C60ADF8406009F014F80398A4F8806323
:103DA000FFF724F804F5BB534FF0FF320433C4E9A6
:103DB000E1220399C4F87033404605F067FB2823DD
:103DC00000935846B4231A224621FEF733FDD4F857
:103DD0009033A4F8C4534FF07F420AAEC4F8C02316
:103DE00059463046D3F88430984796E8070004F5E2
:103DF000737383E8070004F57773C4F8D83310A908
:103E00000F4BA4F8DC5358461093ADF8445008F01B
:103E10007BFF404659461DE0503702089C4302088C
:103E200034430208A43C0208A035020858340208B2
:103E3000EC3F02088C4002086C3F0208F43B020889
:103E4000842B02081035020838370208613900084F
:103E5000C59714FF05F01AFB204613B0BDE8F08F9C
:103E60007047000030B5174D2C68BFF35B8F14F01E
:103E700001048FB022D128461CF030FFF0B13F235F
:103E80000993114B0893114B07930123CDE9054387
:103E900004930423CDE902430C230D490093162219
:103EA0000E23CDE90B440B480A940194FEF712FF50
:103EB00009481CF05DFF28461CF01CFF05480FB0A8
:103EC00030BD00BF842C0020285602086856020826
:103ED00014540208882C0020613E0008704700003E
:103EE00030B5174D2C68BFF35B8F14F001048FB011
:103EF00022D128461CF0F2FEF0B13F230993114B6A
:103F00000893114B07930123CDE905430493042340
:103F1000CDE902431E230D49009310222423CDE94D
:103F20000B440B480A940194FEF7D4FE09481CF098
:103F30001FFF28461CF0DEFE05480FB030BD00BF55
:103F4000B42C00202C5602086C5602084855020872
:103F5000B82C0020DD3E000800207047002070478C
:103F60000EB403B503AB002153F8042B01930CF0FE
:103F7000E3FC02B05DF804EB03B070470CB407B586
:103F800004AB53F8042B01930CF0D6FC03B05DF89E
:103F900004EB02B070470000436C10B5044673B3E5
:103FA000038F2BB9184B194AC52119481CF0C2FEC2
:103FB000C38E00EB43035B8C0BB30EF06AF8238FC8
:103FC000012B03D8134B144ACB21EEE7E28E531C8E
:103FD0009BB2092B194688BFA3F10A0104EB4101EA
:103FE00040F63F10498C814209D10A2B04EB420272
:103FF00028BF002304EB4303508C5884518420468F
:10400000BDE810400DF048BF7C3702088537020834
:10401000303802087A380208883802080DF003BFE9
:1040200010B586B002AC84E806001A460AAB0593C8
:104030000193099B00932146089B0BF015F906B0EC
:1040400010BD000038B518BB124B13481C6813494B
:10405000B4B1226822440260626822440A60A26805
:1040600014440F4B00221A8000F038F8054600F087
:1040700033F80C4B1C600C4B1D600C4B188007E098
:104080000B4B03600B4B0B600B4B1C68002CE8D1F7
:1040900038BD00BFF02C0020E82C0020E42C0020CC
:1040A000EC2C0020C03A0120C83A0120C43A01207B
:1040B0008C56020870560208D8560208044B1B683A
:1040C00053F82100034B1B6803EB4000704700BF0F
:1040D000E42C0020E82C002007207047004870479F
:1040E000F42C002010B5FFF7BDFE034C2060FFF755
:1040F000F7FE606010BD00BFF42C0020704710B5C3
:104100004FF4AE7104461CF0E7FD204610BD10B51B
:104110000446D0F8580100F055F82046BDE810409C
:104120000BF040BD10B50446FEF742FD014B236085
:10413000204610BD64390208704770477047043844
:104140007047704710B5102104461CF0C5FD20468D
:1041500010BDA0F10400F5E700228260024A02606F
:1041600018324260C1607047B83902087047704722
:1041700010B5034B03600446FEF7E1FD204610BD79
:10418000E839020810B50446FFF7F2FF20464FF465
:104190009E711CF0A1FD204610BD000010B5044624
:1041A000FEF766FE014B2360204610BDE839020889
:1041B000FEF7C6BD00220260014A1060704700BFD2
:1041C000FC2C00207047006810B103689B681847FA
:1041D0007047006810B10368DB6818477047704784
:1041E000043870477047C0680368DB6A1847A0F15D
:1041F0000400FFF7F8BF10B5102104461CF06CFD59
:10420000204610BDA0F10400F5E7C06800F049B8F1
:10421000A0F10400FFF7F9BF00228260024A0260A9
:1042200020324260C1607047203A020870470000A7
:1042300010B5034B03600446FFF7FAFA204610BDA1
:10424000983A020810B50446FFF7F2FF204641F203
:10425000B8711CF041FD204610BD000010B50446A9
:10426000FFF70AFC044B236004F580530122C3F8D6
:10427000B427204610BD00BF983A020838B504465E
:1042800008460D461DF02EF804F5BB5128462022A5
:1042900014310EF0B4FC04F56470BDE838400CF045
:1042A00075BC10B5D0F8003100F1CC04204659435C
:1042B00006F0D6FF2046BDE810400CF067BCFFF7C3
:1042C000F0BF000038B5044604F5BB551435FFF7C0
:1042D00063FA2946202216480EF091FCC4F8D85300
:1042E00004F1CC05284608F0ADF8D4F800314FF4BD
:1042F0007A725A430021284606F09DFBD4F8FC1040
:104300000C4C01EB8102284606F073FB28460CF0AA
:104310003DFC206858B104F051FA032807D1064843
:104320001CF0E0FF2068BDE8384004F089BA38BDD1
:10433000503A02087C2C0020563A0208F0207047C0
:104340004FF4A07070472920FDF754BB2820FDF7DB
:1043500051BB08B5FDF722FBCA20FDF74BFBC3207C
:10436000FDF72CFB0820FDF729FB5020FDF726FB6D
:10437000CF20FDF73FFB0020FDF720FBC120FDF71C
:104380001DFB3020FDF71AFBED20FDF733FB642009
:10439000FDF714FB0320FDF711FB1220FDF70EFBC8
:1043A0008120FDF70BFBE820FDF724FB8520FDF7BE
:1043B00005FB0020FDF702FB7820FDF7FFFACB207C
:1043C000FDF718FB3920FDF7F9FA2C20FDF7F6FA76
:1043D0000020FDF7F3FA3420FDF7F0FA0220FDF794
:1043E000EDFAF720FDF706FB2020FDF7E7FAEA20BB
:1043F000FDF700FB0020FDF7E1FA0020FDF7DEFAF3
:10440000B120FDF7F7FA0020FDF7D8FA1B20FDF7E1
:10441000D5FAB620FDF7EEFA0A20FDF7CFFAA22072
:10442000FDF7CCFAC020FDF7E5FA1020FDF7C6FA3B
:10443000C120FDF7DFFA1020FDF7C0FAC520FDF717
:10444000D9FA4520FDF7BAFA1520FDF7B7FAC720CB
:10445000FDF7D0FA9020FDF7B1FA3620FDF7CAFA41
:10446000C820FDF7ABFAF220FDF7C4FA0020FDF7F3
:10447000A5FAB020FDF7BEFAC220FDF79FFAB620DC
:10448000FDF7B8FA0A20FDF799FAA720FDF796FA8A
:104490002720FDF793FA0420FDF790FA2A20FDF774
:1044A000A9FA0020FDF78AFA0020FDF787FA00201C
:1044B000FDF784FAEF20FDF781FA2B20FDF79AFA39
:1044C0000020FDF77BFA0020FDF778FA0120FDF7C8
:1044D00075FA3F20FDF772FAF620FDF78BFA0120FE
:1044E000FDF76CFA0020FDF769FA0620FDF766FA81
:1044F0002C20FDF77FFAC820FDF7CAFA2620FDF729
:1045000079FA0120FDF75AFAE020FDF773FA0F203F
:10451000FDF754FA2920FDF751FA2420FDF74EFA51
:104520000C20FDF74BFA0E20FDF748FA0920FDF7A5
:1045300045FA4E20FDF742FA7820FDF73FFA3C207D
:10454000FDF73CFA0920FDF739FA1320FDF736FA9A
:104550000520FDF733FA1720FDF730FA1120FDF79B
:104560002DFA0020FDF72AFAE120FDF743FA00209A
:10457000FDF724FA1620FDF721FA1B20FDF71EFA9D
:104580000420FDF71BFA1120FDF718FA0720FDF7AC
:1045900015FA3120FDF712FA3320FDF70FFA422009
:1045A000FDF70CFA0520FDF709FA0C20FDF706FAD5
:1045B0000A20FDF703FA2820FDF700FA2F20FDF767
:1045C000FDF90F20FDF7FAF91120FDF713FAC820C5
:1045D000FDF75EFA2920FDF70DFABDE808402C2012
:1045E000FDF708BA08B5FDF7D9F90321D320FDF787
:1045F0001DFA80B208BD10B5C4B2022203212046C4
:10460000FDF782F90A20FDF7C7F9204600220321B1
:10461000FDF77AF9BDE810400220FDF7BDB938B5C5
:104620000446E4B2FDF76EF900212046FDF784F957
:10463000012105462046FDF77FF940EA052080B2BA
:1046400038BD10B5C4B240212046FDF775F9030608
:1046500007D54C212046FDF76FF9003818BF01201F
:1046600010BD01224B212046FDF74EF920460022C5
:104670004B21FDF749F90020F2E773B50423C4B2DA
:104680000E461546D7210DEB03022046FDF76EF9C5
:10469000019B1BBA1A0DC3F30B23328020462B80DB
:1046A00001224B21FDF730F900224B212046FDF776
:1046B0002BF902B070BD000010B50A4A1378984279
:1046C00004460DD0517888420AD00BB141B901237C
:1046D000D454FDF717F92046BDE81040FFF78BBF13
:1046E00010BD00BF002D002010B5C4B20921204626
:1046F000FDF722F940F00102D2B220460921BDE8BF
:104700001040FDF701B910B5C4B209212046FDF7EC
:1047100013F9092100F0FE022046BDE81040FDF724
:10472000F3B838B5C4B20D4620460A21FDF704F9A6
:1047300040EA0502D2B220460A21BDE83840FDF722
:10474000E3B810B50446FDF7DEF820461F21FFF759
:10475000E8FF2046BDE81040FFF7C6BF38B5C4B239
:104760000D4620460A21FDF7E7F820EA0502D2B2FD
:1047700020460A21BDE83840FDF7C6B810B504460A
:10478000FFF7C1FF20461F21BDE81040FFF7E6BF3D
:1047900010B5C0B20C460B21FDF7CEF8204010BD7D
:1047A0001F21FFF7F5BF0A46C0B20B21FDF7ACB8D9
:1047B0001F21FFF7F8BF38B5C4B20D4620461721B8
:1047C000FDF7BAF820EA0502D2B220461721BDE86B
:1047D0003840FDF799B870B5C4B2064604212046AA
:1047E000FDF7AAF8042100F0FB0205462046FDF77C
:1047F0008BF83046F021FFF7DEFF05F0F802204687
:104800000421FDF781F8492220212046FDF77CF89C
:104810000220FDF7C1F8204601222121FDF774F89E
:1048200020469A224121FDF76FF8204601224A21B5
:10483000FDF76AF8204601224B21FDF765F8204676
:1048400000224B21FDF760F8204601225621FDF79A
:104850005BF8204601225821FDF756F82046012238
:104860004021FDF751F82046FF220B21FDF74CF8BF
:10487000BDE870400220FDF78FB80000054BD3F86B
:10488000882042F47002C3F888204FF000629A60DA
:10489000704700BF00ED00E008B50B4B1A6842F40A
:1048A00000721A601A6842F480621A601A6842F450
:1048B00080721A60032000F02FF80020FDF760FBE3
:1048C000FDF7F4F8002008BD003C0240034A044B09
:1048D00011681B780B441360704700BF042D002043
:1048E0007C000020014B1868704700BF042D002099
:1048F00038B50446FFF7F6FF631C1CBF054B1B7859
:10490000054618BFE418FFF7EDFF431BA342FAD397
:1049100038BD00BF7C0000200749CA6822F4E0626D
:104920000302120403F4E063120C134343F0BF6369
:1049300043F40033CB60704700ED00E0164B30B518
:10494000DC68C4F30224C4F10703251D042B28BF2F
:104950000423062D4FF0FF358CBF033C002405FADD
:1049600003F321EA0303A54022EA0502A34000283D
:1049700043EA0203ACBF00F16040084A4FEA031368
:10498000B8BF00F00F00DBB2AABF00F561401354BE
:1049900080F8003330BD00BF00ED00E014ED00E012
:1049A000002807DB044A4109012300F01F0083406F
:1049B00042F82130704700BF00E100E010B5044626
:1049C00050B1437903F0FF0213B90271FDF78EF87D
:1049D00001236371002010BD0120FCE710B50446DF
:1049E00030B390F8393003F0FF021BB980F838205B
:1049F000FDF794F822686168022384F8393013685F
:104A000023F440330B431360536BA16823F0070377
:104A10000B435363136CE16823F47F5323F03F038C
:104A20000B43136400200123E06384F8393010BD88
:104A30000120FCE770477047036870B55E681D6829
:104A4000F207044614D5E90512D51A6822F48072DB
:104A50001A60C26B42F00102C26301229A60042311
:104A600080F83930002380F83830436903B1984723
:104A7000B20616D5AB0414D523681A6822F4005286
:104A80001A6020229A60E36B43F00203E36304237D
:104A900084F83930002384F8383063690BB120463C
:104AA0009847300716D5290514D523681A6822F4CB
:104AB00000621A6008229A60E36B43F00403E36328
:104AC000042384F83930002384F8383063690BB14B
:104AD0002046984772070BD56B0509D523681A68DD
:104AE00022F480621A6004229A602046FFF7A2FF37
:104AF000B00714D5A90512D523681A6822F40072EC
:104B00001A6002229A60E36BE363012384F8393070
:104B1000002384F8383023690BB120469847F20609
:104B200013D5EB0411D523681A6822F480521A6059
:104B300010229A60E36BE363012384F83930002389
:104B400084F838302046FFF776FF70BDF0B590F856
:104B50003820012A03464FF002002BD0012283F8AF
:104B6000382083F8390003EB0112D2E90740556A77
:104B7000174F44EA0040093C012C9CBF05F07F42DE
:104B800010434FEA01161A6888BF40EA056091B9E0
:104B9000516A394001435162012C9969916103D8EE
:104BA000596A21F07F4191620122002083F8392067
:104BB00083F83800F0BDD16939400143D1619919BA
:104BC000012C896911619CBF25F07F451562EBE7D7
:104BD000F0FFFC002DE9F74FDFF8BC916C4A002391
:104BE0000D6801249C4004EA0506AC4340F0B78000
:104BF0004D68032705F003044FEA430807FA08FC51
:104C0000671E012F6FEA0C0C34D8876807EA0C0E78
:104C1000CF6807FA08F747EA0E078760476827EA70
:104C2000060EC5F300179F4047EA0E074760C768A6
:104C300007EA0C0E8F6807FA08F747EA0E07022CFE
:104C4000C76019D14FEAD30A00EB8A0A03F0070BB9
:104C5000DAF820704FEA8B0B4FF00F0E0EFA0BFEB6
:104C600027EA0E0E0F6907FA0BF747EA0E07CAF894
:104C7000207001E0032CDAD1076804FA08F407EA8F
:104C80000C073C4315F4403F046068D000240194B5
:104C9000D9F8444044F48044C9F84440D9F8444029
:104CA00023F0030707F1804704F4804407F59C379D
:104CB000019403F0030C019CD7F808E04FEA8C0C38
:104CC0000F2404FA0CF42EEA040E324CA0424DD00C
:104CD00004F58064A0424BD004F58064A04249D022
:104CE00004F58064A04247D004F58064A04245D01A
:104CF00004F58064A04243D004F58064A04241D012
:104D000004F58064A0423FD004F58064A0423DD009
:104D100004F58064A04214BF0A24092404FA0CF4A8
:104D200044EA0E04BC609468F74315F4801F0CBF7E
:104D30003C4034439460D46815F4001F0CBF3C40E1
:104D40003443D460546815F4003F0CBF3C403443F6
:104D500054601468ED0354BF3C4034431460013385
:104D6000102B7FF43DAF03B0BDE8F08F0024D5E7F2
:104D70000124D3E70224D1E70324CFE70424CDE7BD
:104D80000524CBE70624C9E70724C7E70824C5E7BD
:104D9000003C014000000240003802400369194213
:104DA00014BF0120002070470AB1816170470904D7
:104DB000FBE7436901EA030221EA030141EA0241F8
:104DC00081617047044A5169014208B502D05061BF
:104DD000FDF7D4FA08BD00BF003C014001684B69F3
:104DE00013F480634FF0000210D06FF480634B61C6
:104DF0002023026380F83D3080F83E20036C80F869
:104E00003C2043F0040303640120704718467047B8
:104E10002DE9F84606460F4691461D464FEA114ACF
:104E20003368BAF1010F0CBF5C699C6927EA04047E
:104E3000A4B2B4FA84F46409A14501D0002025E0AD
:104E40006A1CEED0FFF74EFD089BC01AA84201D89D
:104E5000002DE5D13368BAF1010F0CBF5B699B6986
:104E600027EA03039BB2B3FA83F35B099945D7D1D1
:104E700000232022336386F83D2086F83E30326CD2
:104E800086F83C3042F0200232640120BDE8F8860A
:104E90002DE9F04104460F46164698462568686994
:104EA00027EA000080B2C0B16B695A0517D52B689C
:104EB00043F400732B606FF480636B612022002346
:104EC000236384F83D2084F83E30236C43F00403D0
:104ED0002364002384F83C300120BDE8F081731C7A
:104EE000DDD0FFF7FFFCA0EB0800B04201D8002E98
:104EF000D4D123685A6927EA020292B2002ACDD09F
:104F000000232022236384F83D2084F83E30236C64
:104F10001343DDE770B504460D46164623685B690A
:104F20001B0601D500201EE02046FFF757FFC8B939
:104F30006A1CF3D0FFF7D6FC801BA84201D8002DD5
:104F4000ECD123685B6913F08003E7D1202223634F
:104F500084F83D2084F83E30226C84F83C3042F0E6
:104F600020022264012070BD2DE9F043154602683D
:104F700085B0DDE90C789946136843F480731360BB
:104F80000E463B46CDF8008000224FF0011104464A
:104F9000FFF73EFF236838B11B68DB0502D54FF4ED
:104FA00000732364032620E006F0FE061E611A4902
:104FB00043463A462046FFF76BFFA8B923680390A3
:104FC0005A6903929B690393424639462046039BE4
:104FD000FFF7A0FF064660B1236C042B01BF2268D7
:104FE000136843F4007313600126304605B0BDE832
:104FF000F083B9F1010F236802D1EDB21D61F4E72E
:105000002A0A1A61394642462046FFF783FF0028E4
:10501000E2D12368F1E700BF020001002DE9FF475C
:105020009A46036815461A6842F480621A601A6844
:10503000DDE90C7842F480721A600E463B46CDF8EA
:10504000008000224FF001110446FFF7E1FE2368C3
:1050500038B11B68DB0544BF4FF4007323640320A1
:1050600021E05FFA86F906F0FE061E612B494346F1
:105070003A462046FFF70CFFA0B9236803905A690F
:1050800003929B690393424639462046039BFFF7F0
:1050900041FF58B1236C042B01BF2268136843F40D
:1050A00000731360012004B0BDE8F087BAF1010F6E
:1050B00023681AD1EDB242461D6139462046FFF7FA
:1050C00029FF02460028E5D121680B6843F480736C
:1050D0000B602046CDF800803B464FF00111FFF7F2
:1050E00097FE226860B11368B4E72A0A1A6139464C
:1050F00042462046FFF70EFF0028CBD12368D9E7B0
:1051000049F001031361054943463A462046FFF73B
:10511000BFFE003818BF0120C5E700BF0200010034
:1051200070B504460D46164623685B695B0701D5DA
:1051300000201EE02046FFF751FEC8B96A1CF3D0DC
:10514000FFF7D0FB801BA84201D8002DECD12368CB
:105150005B6913F00403E7D12022236384F83D2028
:1051600084F83E30226C84F83C3042F02002226405
:10517000012070BD70B504460D46164621684B6986
:1051800013F0400301D0002011E04A69D2060FD588
:105190006FF010024A612022236384F83D2084F8D6
:1051A0003E30236C2364002384F83C30012070BD22
:1051B000FFF798FB801BA84201D8002DDED12368A1
:1051C0005B6913F04003D9D12022236384F83D208A
:1051D00084F83E30236C1343E4E7000070B50446C6
:1051E00008B9012070BD90F83D3003F0FF021BB9F3
:1051F00080F83C20FCF7B4FC242384F83D3023687D
:105200001A6822F001021A601A6842F400421A6019
:105210001A6822F400421A6000F05CFE3F4B656899
:105220009D4294BF3E4B3F4B98428CBF00230123CD
:10523000002BD6D12268394E51683B4BB0FBF3F3BB
:1052400021F03F011943B542516088BF4FF4967673
:10525000116A88BF734321F03F0184BF4FF47A760F
:10526000B3FBF6F301330B431362D169431E2B48A2
:1052700021F44F41854221F0FF0132D86D0040F604
:10528000FC70B3FBF5F30133034242D0C3F30B03CD
:105290001943D161D4E907301168034321F0C001FB
:1052A0000B4313609168D4E9030321F403410343E2
:1052B00021F0FF010B439360D4E90530D16803432B
:1052C00021F0FF010B43D360136843F00103136027
:1052D00000202023206484F83D30206384F83E00C1
:1052E00080E7A06850B905EB4505B3FBF5F3013342
:1052F000C3F30B037BB143F40043C9E719206843B0
:10530000B3FBF0F30133C3F30B0323B143F4404386
:10531000BEE70423BCE70123BAE700BFA086010073
:105320007F841E00FF083D0040420F002DE9F74337
:10533000044699460C9E0F469046FFF7D3FA94F820
:105340003D30202B054603D0022003B0BDE8F0839A
:1053500000903C49192301222046FFF759FD0028FF
:10536000F2D194F83C30012BEED02068012384F870
:105370003C300368D9075EBF036843F00103036054
:10538000036823F400630360212384F83D30402345
:1053900084F83E30002323640A9B6362BDF82C30FE
:1053A0006385638D2385284BE3624246CDE9006522
:1053B0004B4639462046FFF7D7FD00282AD001206A
:1053C000C3E7FFF7A7FD40B1236C042B01BF2268A0
:1053D000136843F400731360F1E7636A27681A46A1
:1053E00012F8011B39616262628D218D013A92B21D
:1053F00062857A69481E80B2520720850AD548B175
:105400005A783A6102336362638D013B02399BB281
:1054100021856385238D2A4631462046002BD0D135
:10542000FFF77EFE0028CFD12268136843F4007393
:105430001360202384F83D3084F83C0084F83E005B
:1054400083E700BF020010000000FFFF2DE9F043DA
:10545000044687B09946109F0D469046FFF742FAE2
:1054600094F83D30202B064604D00225284607B08C
:10547000BDE8F08300907A49192301222046FFF706
:10548000C7FC0028F1D194F83C30012BEDD0206806
:10549000012384F83C300368DB075EBF036843F0F8
:1054A00001030360036823F400630360222384F88C
:1054B0003D30402384F83E30002323640E9B63621A
:1054C000BDF83C306385638D2385664BE3622946D6
:1054D000CDE900764B4642462046FFF79FFD054644
:1054E00008B10125C2E7228D2368B2B902905A693A
:1054F00002929A690292029A1A6842F400721A6041
:10550000DFF86481238D002B2CD1202284F83D20EC
:1055100084F83C3084F83E30A8E7012A0AD11A68A2
:1055200022F480621A6003905A6903929A69039286
:10553000039AE1E7022A0ED11A6822F480621A6007
:105540001A6842F400621A6004905A6904929B69D6
:105550000493049BD4E705905A6905929B690593CF
:10556000059BCDE7032B56D8012B15D13246394682
:105570002046FFF7FFFD0028B3D123681A69636A4C
:105580001A70636A01336362238D013B2385638D47
:10559000013B9BB26385B5E7022B00963B464FF07B
:1055A00000024146204619D1FFF732FC002898D16D
:1055B00023681A6842F400721A601A69636A1A70E2
:1055C000626A531C6362238D013B2385638D013B1B
:1055D0009BB2638523681B695370D2E7FFF718FC01
:1055E000024600287FF47DAF2368196821F48061AA
:1055F00019601969636A1970636A01336362238DE4
:10560000013B2385638D013B9BB263854146009638
:105610003B462046C8E7324639462046FFF7AAFDFA
:1056200000287FF45EAF23681A69636A1A70628D7E
:10563000616A013A92B24B1C628522686362238DD3
:105640005069013B9BB2400723857FF55BAF032B7D
:1056500002BF136823F48063136013694B7090E7F3
:10566000020010000000FFFF0400010010B590F8D8
:105670003D30202BDCB216D1242380F83D30036866
:105680001A6822F001021A605A6A22F010025A6265
:105690005A6A114359621A6842F001021A6080F88E
:1056A0003D40002010BD0220FCE730B590F83D30B1
:1056B000202BDCB216D10268242380F83D30136819
:1056C00023F001031360556A4FF6F0732B400B4330
:1056D0009BB25362136843F00103136080F83D40AE
:1056E000002030BD0220FCE70068D201843283181C
:1056F000F0B5C7685D684C680E6805F470455D607C
:10570000C56806F1010CC5F30B45C7F30B476544AB
:10571000274445EA07455D60C768CD68C7F30A07B7
:105720002F449D6805F470459D60D0F80CC08D68CD
:10573000CCF30A0C0135654445EA07459D601D69B7
:10574000D1F810C08F6925F007051D61C3F810C09E
:1057500091F8305045EA076591F8317045EA072520
:1057600091F8327045EA07459D615D6925F0FF05B6
:105770005D614D695D61DD6925F4E06525F0070532
:10578000DD61D1E907573D43DD614D6A9D62BCF1A2
:10579000000F24D0BCF1010F23D0ACF10205022D83
:1057A00021D9BCF1070F14BF01250225DF6A07F0DC
:1057B000E027DF62A41B8F6AC96A6C436F4303341E
:1057C00044EA0744DC621C6B24F4FF6424F0070401
:1057D0001C631963835843F001038350F0BD042513
:1057E000E4E70325E2E70225E0E738B504460028B0
:1057F0004ED090F8A13003F0FF021BB980F8A02032
:10580000FCF70AFA022384F8A13023689A6922F08F
:1058100070429A61D4E901200243E0689969024329
:10582000206902430A439A61D4E9051242EA01421F
:105830009A60D4E9071242EA0142DA60D4E9091217
:1058400042EA01421A61D4E90B1242EA01425A616A
:10585000DA6A94F8350094F8361002F07F42DA6282
:10586000DD6A94F834202A4342EA002242EA0142E7
:10587000DA625A6B42F006025A639A6942F00102F8
:105880009A6100200123C4F8A40084F8A13038BD37
:105890000120FCE770477047036870B59E6B5D6B35
:1058A0007207044614D5690712D55A6B22F0040218
:1058B0005A630422DA63D0F8A43043F00103C0F83D
:1058C000A430002380F8A12080F8A030FFF7E2FF89
:1058D000B20716D5AB0714D523685A6B22F0020223
:1058E0005A630222DA63D4F8A4301343C4F8A43014
:1058F000042384F8A130002384F8A0302046FFF769
:10590000C9FFF00710D5E9070ED523685A6B22F0BE
:1059100001025A630122DA63002384F8A12084F88B
:10592000A0302046FBF71EFD320711D52B070FD5FF
:1059300023685A6B22F008025A630822DA630123B3
:1059400084F8A130002384F8A0302046FFF7A3FF9D
:1059500070BD2DE9F04190F8A030012B06460F46AE
:1059600094464FF002001FD04FF0010886F8A08047
:1059700086F8A10034240D4604FB02640FCD3834B0
:105980000FC40FCD0FC40FCD0FC42B68236030465A
:1059900062463946FFF7A8FE33680020C3F824802A
:1059A00086F8A18086F8A000BDE8F08190F8A020DC
:1059B000012A03464FF0020012D01A6883F8A100B2
:1059C000506B20F00100506306480164516B41F0B8
:1059D000010151630020012283F8A12083F8A00077
:1059E000704700BF006801402DE9F341044640B311
:1059F0000368DE0710D423689D075BD4236819076A
:105A000000F19D8023685A0700F1BD80A369002B37
:105A100040F0248100202CE08D4B9A6802F00C02AB
:105A2000042A07D09A6802F00C02082A0BD15B689E
:105A3000590208D5864B1B689A03DCD56368002B96
:105A4000D9D1012015E06368814DB3F5803F13D1B2
:105A50002B6843F480332B60FEF744FF7C4E0546F1
:105A600033689B03C7D4FEF73DFF401B6428F7D97A
:105A7000032002B0BDE8F081B3F5A02F04D12B685C
:105A800043F480232B60E3E72A6822F480322A6003
:105A90002A6822F480222A60002BDDD1FEF722FF43
:105AA00006462B689F03A6D5FEF71CFF801B6428C3
:105AB000F7D9DDE7664B9A6812F00C0F07D09A68A9
:105AC00002F00C02082A11D15B685D020ED4604A14
:105AD0001368990702D5E368012BB2D113682169D5
